:020000020000FC
:100000000C946B09189518951895189518951895CE
:100010001895189518951895189518951895189578
:100020001895189518951895189518951895189568
:100030001895189518951895189518951895189558
:100040000C94FC08189518950C94B20818951895FE
:100050000C94D70818951895189518951895189513
:100060001895189518951895189518951895189528
:100070001895189518951895189518951895189518
:1000800018951895189518951895189500C18140E0
:1000900001C0804101C0804100C1814001C0804158
:1000A00000C1814000C1814001C0804101C0804148
:1000B00000C1814000C1814001C0804100C1814038
:1000C00001C0804101C0804100C1814001C0804128
:1000D00000C1814000C1814001C0804100C1814018
:1000E00001C0804101C0804100C1814000C1814008
:1000F00001C0804101C0804100C1814001C08041F8
:1001000000C1814000C1814001C0804101C08041E7
:1001100000C1814000C1814001C0804100C18140D7
:1001200001C0804101C0804100C1814000C18140C7
:1001300001C0804101C0804100C1814001C08041B7
:1001400000C1814000C1814001C0804100C18140A7
:1001500001C0804101C0804100C1814001C0804197
:1001600000C1814000C1814001C0804101C0804187
:1001700000C1814000C1814001C0804100C1814077
:1001800001C0804101C0804100C1814000C0C10167
:10019000C30302C2C60607C705C5C404CC0C0DCDF7
:1001A0000FCFCE0E0ACACB0BC90908C8D81819D967
:1001B0001BDBDA1A1EDEDF1FDD1D1CDC14D4D51597
:1001C000D71716D6D21213D311D1D010F03031F187
:1001D00033F3F23236F6F737F53534F43CFCFD3DB7
:1001E000FF3F3EFEFA3A3BFB39F9F83828E8E929A7
:1001F000EB2B2AEAEE2E2FEF2DEDEC2CE42425E557
:1002000027E7E62622E2E323E12120E0A06061A1C6
:1002100063A3A26266A6A767A56564A46CACAD6D76
:10022000AF6F6EAEAA6A6BAB69A9A86878B8B979E6
:10023000BB7B7ABABE7E7FBF7DBDBC7CB47475B516
:1002400077B7B67672B2B373B17170B05090915106
:100250009353529296565797559594549C5C5D9D36
:100260005F9F9E5E5A9A9B5B995958988848498926
:100270004B8B8A4A4E8E8F4F8D4D4C8C44848545D6
:100280008747468682424383418180404E02000177
:100290000000F8010081017008950E94B409C801AE
:1002A000422EFC0101811281D801509638012AE1C9
:1002B000620E20E0721EF30120813181F90120815C
:1002C0002223D1F12F3FC1F10E945B06F30100818F
:1002D0001181F80121812068FC01018112810E94B5
:1002E0005B06242DFC01018112810E945B06FD0149
:1002F000668177814D915C91119700851185400F42
:10030000511F415050402D913C91048115810E9414
:100310008C08D8019D01232FFC01018112810E94CC
:100320005B062A2FFC01018112810E945B06FC0101
:10033000018112810E94E606E8E00C94C3090E9444
:10034000B0092801F20101811281380120E1620E19
:1003500020E0721ED8015A96ED91FC9111973281DE
:10036000ED91FC911197438150E0240FED91FC91A8
:100370001197948180E0ED91FC9111974581840F54
:10038000422F432B11F440E003C0F201478550890E
:100390002417350720F422E082017FDF6BC0880F2D
:1003A000991FF201A384B484241B350B220F331F41
:1003B000A20EB31EED91FC91119720810E945B0665
:1003C000ED91FC912181F201018112810E945B0675
:1003D000282FF201018112810E945B068824992452
:1003E00015C0D501A80DB91DFD012181F2010181C2
:1003F00012810E945B06FD012081F20101811281C0
:100400000E945B0602E0800E00E0901E88169906AE
:1004100040F3F30126813781F201008104FF07C018
:100420008301D2011996ED91FC91099510C0B90193
:10043000F3014081518100851185400F511F4150CA
:10044000504020813181048115810E948C08C801AF
:100450009C01232FF201018112810E945B06282F4B
:10046000F201018112810E945B06F2010181128179
:100470000E94E606ECE00C94BF090E94B209D80184
:10048000FD01818192814C0100E1800E00E0901E0F
:100490004A96FC0100811181F80152804424FC013C
:1004A00000811181F8010381400EFC01008111815E
:1004B000F80174806624FC0100811181F801058136
:1004C000600E0C9101FF0AC021E030E08201FD01C5
:1004D00043815481FA010995013031F0FD012785EE
:1004E00030894216530620F422E08D01D6DE85C005
:1004F00003851485A201421B530B440F551F040FA3
:10050000151FF801608271820C9102FF08C021E082
:1005100030E08201FD0145815681FA010995FC0117
:1005200000811181F8012081222309F466C0FD01B8
:10053000018112810E945B06FC0100811181F8019A
:100540002181FD01018112810E945B06FC01008175
:100550001181F8012281FD01018112810E945B0657
:10056000FC0100811181F8012381FD0101811281CB
:100570000E945B06FC0100811181F8012481FD01CC
:10058000018112810E945B06FC0100811181F8014A
:100590002581FD01018112810E945B06F401268103
:1005A00037810C9104FF07C084011996ED91FC91ED
:1005B0001A9709950FC0B9014081518100851185B5
:1005C000400F511F415050402081318104811581DD
:1005D0000E948C08C8019C01232FFD01018112811A
:1005E0000E945B06282FFD01018112810E945B069B
:1005F000FD01018112810E94E606EAE00C94C10926
:100600000E94AE09D801FD01818192815C0100E167
:10061000A00E00E0B01E4A9607E0C02EDD24FC01CB
:1006200000811181F80192808824FC0100811181F0
:10063000F8010381800EFC0100811181F8017480B2
:100640006624FC0100811181F8010581600E082DEE
:10065000092919F44424552403C0FD014784508816
:100660000C9101FF09C093018401FD014381548174
:10067000FA010995013019F08414950420F422E060
:100680008D010BDEB6C08301000F111FFD0121811A
:100690003281F90122A133A12950304020173107BE
:1006A00008F48901FD0123853485A4014419550905
:1006B000440F551F240F351F60E070E01FC0090173
:1006C000060E171EFC01408151814C0D5D1DFA0183
:1006D0004081F001418341E0C40E40E0D41EFC01A2
:1006E000408151814C0D5D1DFA014081F001408334
:1006F00041E0C40E40E0D41E6E5F7F4F601771076B
:10070000F0F20C9102FF07C093018401FD014581C5
:100710005681FA010995FC0100811181F8012081BF
:10072000222309F466C0FD01018112810E945B064B
:10073000FC0100811181F8012181FD0101811281FB
:100740000E945B06FC0100811181F8012281FD01FC
:10075000018112810E945B06FC0100811181F80178
:100760002381FD01018112810E945B06FC01008151
:100770001181F8012481FD01018112810E945B0633
:10078000FC0100811181F8012581FD0101811281A7
:100790000E945B06F501268137810C9104FF07C09A
:1007A00085011996ED91FC911A9709950FC0B90131
:1007B0004081518100851185400F511F41505040AB
:1007C00020813181048115810E948C08C8019C011F
:1007D000232FFD01018112810E945B06282FFD015C
:1007E000018112810E945B06FD01018112810E943C
:1007F000E606EEE00C94BD090E94B209D801FD01A5
:1008000001811281480120E1820E20E0921E065EE5
:100810001F4F2801F20100811181F80172806624C6
:10082000F20100811181F8010381600EFD0105854F
:1008300016850E94030AC80196958795FD010585D6
:1008400016850E94030A00FB0EF401960C9105FD2B
:1008500002C02EE006C00CE060160FE0700621F02A
:100860002FE08D011ADD56C0880F991FFD016584A8
:100870007684F20100811181F8012081FD0101815E
:1008800012810E945B06F20100811181F801218131
:10089000FD01018112810E945B06282FFD0101816B
:1008A00012810E945B06442455240DC0F301E40D1F
:1008B000F51D2081FD01018112810E945B0601E08E
:1008C000400E00E0501E4816590680F3F401668180
:1008D00077814081518100851185400F511F415022
:1008E000504020813181048115810E948C08C8010B
:1008F0009C01232FFD01018112810E945B06282F9C
:10090000FD01018112810E945B06FD0101811281BE
:100910000E94E606EAE00C94C1090E94B409D801DD
:10092000C9018A01488559856A857B85FC0120813A
:1009300024FF32C0FD01818392830387148708EC72
:1009400010E00787108B00E21EE420E030E00E94F8
:100950008B09FD0141815281FA01008711872287AD
:100960003387FD0101801280F0014084518462844C
:10097000738442E0441640E054066406740630F482
:1009800042E050E04087518752875387FC0104A31F
:1009900015A30C9101600C938D017BDC00FB0C9185
:1009A00006F90C930C910170ECE00C94C309F8016A
:1009B000408146FD02C000E00895258336832081F2
:1009C00024602083008102FB00E000F90895F80113
:1009D000408146FD02C000E008952787308B01E08A
:1009E00008950E94B70921972883C801FC0101815D
:1009F0001281D8015A964424208126FF8BC00E9480
:100A00008507FC0101811281F80120A131A1232B6E
:100A100009F480C00E946107002309F07BC0FC013B
:100A2000008103FF09C09E018C0147815085FA01B6
:100A30000995002309F04394442009F068C0ED9122
:100A4000FC91119700811881011729F0002319F0FA
:100A50000F3F09F05CC0FD012681378122503040F4
:100A6000FC01008104FF06C08D0141855285FA0119
:100A7000099512C0B9014D915C911197FD01008556
:100A80001185400F511F415050402D913C911197BD
:100A9000048115810E948C0898010D911C91119779
:100AA000FD0146815781040F151F02501040F801C7
:100AB0006081A9016517F1F401810417D9F4ED9162
:100AC000FC9111970181035039F0035041F00A5015
:100AD00049F0035651F00CC08C0131DC18C08C0178
:100AE000CCDC15C08C018CDD12C08C0185DE0FC002
:100AF00021E00BC0ED91FC9111970181033021F0B1
:100B0000063011F0003119F423E08C01C6DB8D01B1
:100B10000E9454072196E5E00C94C609F801008173
:100B20000770073011F401E0089500E008953B2FAD
:100B30006A2F2FB7F894F801478101E010E00E9476
:100B40007D09A581B6811C91102B1C932FBFA62F68
:100B5000B32F08953B2F6A2F2FB7F894F8014781E0
:100B600001E010E00E947D090095A581B6811C91ED
:100B700010231C932FBFA62FB32F0895BA93AA93C7
:100B8000D8010A8111962D933C93129713964D9399
:100B90005C93149715966D937C93169717960C9308
:100BA00017970C9101600C938D01B8DF00FB0C913D
:100BB00004F90C930C910170A991B99121960895B3
:100BC000BA93AA93D8010A811B8150962D933C9326
:100BD000519758964D935C9359975A966D937C9381
:100BE0005B9792960D931C9393970C9102600C93D4
:100BF0008D0194DF00FB0C9104F90C930C9101FB27
:100C000000E000F9A991B99122960895BA93AA93A8
:100C1000D8010C9101FF3DC050960D911C91519748
:100C200054960D931C93559752960D931C9353977E
:100C300058964D915C91599720E030E050960D9177
:100C40001C9151970E94D20900E056960D930C9387
:100C500057975A960D911C915B975E960D931C9336
:100C60005F975C960D931C935D9792964D915C9166
:100C7000939720E030E05A960D911C915B970E946B
:100C8000D20900E090960D930C9391970C9104601B
:100C90000C9300E094960D930C9395978D013EDF95
:100CA00000FB0C9104F90C930C9102FB00E000F99D
:100CB000A991B9910895BD01D801FD0170960C91DB
:100CC00004FF26C00681178140855185041715074A
:100CD000F8F4068117810F5F1F4F06831783A281E7
:100CE000B3812C932281338100811181408551850C
:100CF000040F151F015010402017310719F400810F
:100D0000118104C0028113810F5F1F4F028313837F
:100D1000DB0108950E94B809D801CD0140968C01ED
:100D20002C9124FF50C0F80126813781232B71F1CB
:100D300026813781215030402683378324813581B5
:100D4000F9014081FD0121813281F9014083F801DF
:100D5000448155812081318160857185260F371F3F
:100D6000215030404217530729F4208131812483D8
:100D7000358306C0048115810F5F1F4F04831583DF
:100D8000FD0104A115A106A317A31DC0FD0104A127
:100D900015A1012BC1F40C910F7D0C930C9103FF55
:100DA00006C000E020A531A5F901099502C08D011A
:100DB000D1DEFD01048915892289338902171307C1
:100DC00011F08C0171D0E4E00C94C709BA93AA9396
:100DD000D8010C9104FF1DC01396ED91FC9114975E
:100DE000008105FFF9CF0C9100620C93FD0104A175
:100DF00015A106A317A30C9103FF07C001E0989665
:100E0000ED91FC919997099502C08D0190DE8D01BD
:100E100081DFA991B99108950D012197F8017A9682
:100E2000D8012C9124FF3DC02C9125FD07C02681BF
:100E30003781408551852417350730F0F801A181AD
:100E4000B2810C9108832DC0268137812F5F3F4FDF
:100E50002683378311962D913C91D9012C91A28143
:100E6000B3812C93428153812081318160857185CA
:100E7000260F371F215030404217530719F42081A5
:100E8000318104C0228133812F5F3F4F228333831E
:100E9000F80140855185628573854487558766874B
:100EA00077872196D0010895F8012081318122832E
:100EB0003383228133812483358320E02683278373
:100EC0000895F801208124FF1EC04485558566855C
:100ED0007785452B462B472B61F0448555856685E4
:100EE0007785415050406040704044875587668701
:100EF00077870485158526853785012B022B032BE3
:100F000011F001E0089500E00895BA93AA93D80182
:100F10000C9104FF26C0FD0106A117A1012BD9F4F5
:100F20000C910F7D0C930C9103FF07C000E0989685
:100F3000ED91FC919997099502C08D010BDEFD01A1
:100F400004891589228933890217130751F05096B5
:100F50008D01AADF06C006A117A10150104006A30B
:100F600017A3A991B99108951B2E2A2EF801088183
:100F70001981022E032A19F0002E012A11F400E033
:100F80000EC0458356836783708745E04187218380
:100F900032830383148300810160008301E0A22D6A
:100FA000B12D229608950E94B809D8010C9100FF36
:100FB000B0C0FD010185021709F4ABC021872150A3
:100FC00041F12A9509F444C02A9509F460C02A9594
:100FD000058116812781308544E009F478C00E949C
:100FE000830940E855E260E070E00E948B09C80187
:100FF0000197FD0103811481F8019083FD010581B2
:1010000016812781308544E00E94830940E855E23B
:101010005CC0058116812781308544E00E948309E8
:1010200040E05BE460E070E00E948B09C80101973A
:10103000FD0103811481F8019083FD010581168172
:101040002781308544E00E94830940E05BE43DC095
:10105000058116812781308544E00E94830940E0A4
:1010600056E960E070E00E948B09C8010197FD011C
:1010700003811481F8019083FD0105811681278188
:10108000308544E00E94830940E056E91EC0058196
:1010900016812781308544E00E94830940E051EEAB
:1010A00060E070E00E948B09C8010197FD01038197
:1010B0001481F8019083FD01058116812781308517
:1010C00044E00E94830940E051EE60E01AC00E94B3
:1010D000830940E052EC61E070E00E948B09C80196
:1010E0000197FD0103811481F8019083FD010581C1
:1010F00016812781308544E00E94830940E052EC4C
:1011000061E070E00E948B090A95FD01A181B28126
:101110000C93E4E00C94C7090E94B80909011A0174
:101120004FEF8FEF14C0A42FB0E0F80121918F0191
:10113000A227482FFD01E457FF4F24914227FD01CC
:10114000E457FE4F84912016310608F480019B017C
:1011500061507040232B39F7142F00E0080FE4E0B2
:101160000C94C7098A93FA93EA933A922A921A92B4
:101170000A927A936A935A934A933A932A931A93C8
:101180000A938FB704E211E00E940C078FBF099108
:1011900019912991399149915991699179910990C0
:1011A000199029903990E991F991899118958A932C
:1011B000FA93EA933A922A921A920A927A936A934B
:1011C0005A934A933A932A931A930A938FB704E255
:1011D00011E00E948A068FBF0991199129913991D6
:1011E0004991599169917991099019902990399073
:1011F000E991F991899118950A9300E702BF01E0FE
:10120000009300010991189508958D9A08ED0AB987
:1012100007E003BF0FEF02BF01E007BF05E00A933D
:1012200062E370E04BE250E02CE230E004E211E0D7
:101230000E94BE0500E011E01A930A936EE472E08A
:1012400040E051E02EE431E004E211E00E94E005CC
:1012500004E211E00E94060600E910E01A930A93E6
:1012600029E230E040E050E061EE70E009E011E09A
:101270000E94B40720E009E011E00E94D30700E1DA
:1012800017E220E02A932A931A930A9341E051E04F
:1012900024E231E003E111E00E948D0424E039E012
:1012A00003E111E00E94D70420E030E003E111E007
:1012B0000E94E7047894009100010130E1F700E01A
:1012C0000093000121E003E111E00E94F104F3CF5B
:1012D00000008895FECF0DE80DBF03E00EBFCEE8FD
:1012E000D5E00E94D009002311F00E94E9090E9474
:1012F00005090E9468090C9468094A951AF0000FC4
:10130000111FFBCF08954A952AF03695279517951A
:101310000795F9CF0895002411241001E0E2EA9521
:1013200092F0001F111F221F331F001C111C221CD2
:10133000331C041615062606370688F3041A150A08
:10134000260A370AECCF001F111F221F331FA001EE
:10135000B10100951095209530950895DA92CA92C2
:10136000BA92AA929A928A927A926A925A924A92DD
:10137000BA93AA939A938A930895DD84CC84BB840C
:10138000AA84998488847F806E805D804C80BB8134
:10139000AA8199818881F0E0EC0FFD1FEF0108958B
:1013A00001E00895F80101C02193BA014150504075
:1013B000672BD1F7089520E006D0E9F7089525912D
:1013C00002D0E9F708952D9301501040202F212BD2
:1013D00008958CE892E0FC0105911491FC0132968D
:1013E000A591B491FC01349625913491422F432B61
:1013F00019F0F901E4DF01C0DEDF069612E0823960
:10140000910748F30895F80101C031962081222305
:0A141000E1F7E01BF10B8F010895D6
:0400000300000000F9
:00000001FF
