:020000020000FC
:100000000C949909189518951895189518951895A0
:100010001895189518951895189518951895189578
:100020001895189518951895189518951895189568
:100030001895189518951895189518951895189558
:100040000C94D408189518950C948A08189518954E
:100050000C94AF081895189518951895189518953B
:100060001895189518951895189518951895189528
:100070001895189518951895189518951895189518
:1000800018951895189518951895189500C18140E0
:1000900001C0804101C0804100C1814001C0804158
:1000A00000C1814000C1814001C0804101C0804148
:1000B00000C1814000C1814001C0804100C1814038
:1000C00001C0804101C0804100C1814001C0804128
:1000D00000C1814000C1814001C0804100C1814018
:1000E00001C0804101C0804100C1814000C1814008
:1000F00001C0804101C0804100C1814001C08041F8
:1001000000C1814000C1814001C0804101C08041E7
:1001100000C1814000C1814001C0804100C18140D7
:1001200001C0804101C0804100C1814000C18140C7
:1001300001C0804101C0804100C1814001C08041B7
:1001400000C1814000C1814001C0804100C18140A7
:1001500001C0804101C0804100C1814001C0804197
:1001600000C1814000C1814001C0804101C0804187
:1001700000C1814000C1814001C0804100C1814077
:1001800001C0804101C0804100C1814000C0C10167
:10019000C30302C2C60607C705C5C404CC0C0DCDF7
:1001A0000FCFCE0E0ACACB0BC90908C8D81819D967
:1001B0001BDBDA1A1EDEDF1FDD1D1CDC14D4D51597
:1001C000D71716D6D21213D311D1D010F03031F187
:1001D00033F3F23236F6F737F53534F43CFCFD3DB7
:1001E000FF3F3EFEFA3A3BFB39F9F83828E8E929A7
:1001F000EB2B2AEAEE2E2FEF2DEDEC2CE42425E557
:1002000027E7E62622E2E323E12120E0A06061A1C6
:1002100063A3A26266A6A767A56564A46CACAD6D76
:10022000AF6F6EAEAA6A6BAB69A9A86878B8B979E6
:10023000BB7B7ABABE7E7FBF7DBDBC7CB47475B516
:1002400077B7B67672B2B373B17170B05090915106
:100250009353529296565797559594549C5C5D9D36
:100260005F9F9E5E5A9A9B5B995958988848498926
:100270004B8B8A4A4E8E8F4F8D4D4C8C44848545D6
:100280008747468682424383418180405E02000167
:100290000000F80100810970013011F401E00895B7
:1002A00000E008950E94360AF801D90160E01D01BE
:1002B00044898089918950E007E010E00E94F509A7
:1002C0009C01200F311F27503040A217B30711F4B3
:1002D000DC0101C017966395461710F4D10103C0E5
:1002E0000C91002329F38D01E4E00C94430A0E9451
:1002F000340AD801FD014280538000E1400E00E045
:10030000501E02891389F801038103950383FD01BF
:1003100002891389F80123813481231750F020E0EA
:100320002383FD01228933898D01BCDFFD01028B0E
:10033000138BFD0102891389F80121813281231772
:1003400018F4018103950183FD0122893389F901A4
:1003500085819681438150E007E010E00E94F50915
:10036000800F911F2081FD01028113810E9462068E
:10037000FC012681FD01028113810E946206FC01BD
:100380003181232FFD01028113810E946206FC014D
:100390002081FD01028113810E946206FC013381EC
:1003A000232FFD01028113810E946206FC0122813C
:1003B000FD01028113810E946206F201668177814C
:1003C0004081518100851185400F511F415050409F
:1003D00020813181048115810E946408C8019C013B
:1003E000232FFD01028113810E946206282FFD0147
:1003F000028113810E946206FD01028113810E9425
:10040000ED06E6E00C94410A0E94360AF80103E08A
:1004100010E042815381440F551F80E090E01EC0E0
:10042000D9016D917C91600F711FDB016C91A481EA
:10043000B581A80FB91F11966C930F5F1F4FD9019B
:100440006D917C91600F711FDB016C91A481B5816E
:10045000A80FB91F6C930F5F1F4F02968417950763
:10046000F8F2E4E00C94430A0E94360AD901ED91B7
:10047000FC914281F90160857185CB01049750E0C0
:100480008417950710F4462F4450208131812D5F49
:100490003F4FF801048115810E94AE0AE4E00C94FC
:1004A000430A0E94320A3801F301A281B3815A96AD
:1004B000ED91FC91119720810ED32801F2018581E5
:1004C0009681438150E007E010E00E94F509800F1B
:1004D000911F042D052909F44AC0ED91FC91119753
:1004E0000181FC011681011709F041C0FD016681FF
:1004F0007781625070404D915C9111970085118514
:10050000400F511F415050402D913C911197048153
:1005100015810E9464082D913C911197FD0146813F
:100520005781240F351F22503040F9016081611737
:10053000F1F421812017D9F4FC010681015011F05A
:100540000A9521F49D018C018FDF03C09D018C0170
:100550005BDF00E0F2010183F301008101FF07C0CE
:10056000F2010081D3015696ED91FC910995E8E0E6
:100570000C943F0A0E942E0AD8015901942E4C84F3
:100580005D846E847F840A2D0B29A9F1F501008119
:1005900004FF31C027E030E0092D10E00E948109FE
:1005A000FD01008B118B00891189012B21F1882419
:1005B00001C08394891408F5482D50E007E010E04D
:1005C0000E94F509C80127E030E001E010E00E9438
:1005D0008109FD0120893189280F391FF90105831F
:1005E0001683FD0100891189080F191FF801058183
:1005F0001681012BF1F600E04BC0FD0101810E7F59
:100600000183A282B382948A448255826682778271
:10061000448155816681778100E21EE420E030E06C
:100620000E940B0A1296ED91FC9113970087118797
:1006300022873387FD01448155816681778100E2FD
:1006400011EA27E030E00E940B0AFD0100871187C4
:10065000228733871296ED91FC91139700851185BF
:1006600022853385023040E014072407340728F43C
:1006700002E000874187428743870C9101600C9319
:100680008D0107DE00FB0C9102F90C930C910170B7
:10069000E0E10C943B0ABA93FA2FD8018A019B013E
:1006A0004C9142FD02C000E00EC014964D915D9148
:1006B0006D917C9117970E940B0A18960D931D93CC
:1006C0002D933C9301E0AF2FB99108950E942F0A1A
:1006D000D801922FA32E3A014B014B845C84FD017B
:1006E000008911892C9122FF7EC025893489231726
:1006F00070F480E004C098018D01D4DD8395FD0184
:100700002489821728F4F80120812917A1F76BC0EA
:1007100080E001C08395FD010489801708F05DC069
:10072000482F50E007E010E00E94F5092089318948
:10073000200F311FF9014081442361F79083FD01AF
:1007400020893189200F311FF901518344E1FD01D6
:1007500020893189200F311FF901428341E0FD01D9
:1007600020893189200F311FF9014483FD0120893F
:100770003189200F311FF90125813681F901A682C7
:10078000FD0120893189200F311FF9012581368132
:10079000F90160827182FD0120893189200F311FAA
:1007A000F90125813681F90182829382FD01208938
:1007B0003189200F311FF90125813681F9014482E9
:1007C0005582FD0120893189200F311F228B338B07
:1007D00005890395058B01E007C08D015ADD00FBFB
:1007E0000C9102F90C9300E0EDE00C943C0A0E949D
:1007F0002F0AC801A32E3A014B014B845C84FC01F3
:10080000008102FF44C00589002319F18C0163D1E6
:10081000D801012BE1F1FD0104810023C1F120E0A9
:1008200001C02395FD01658176814481241790F4F0
:10083000422F50E007E010E00E94F509600F711FA1
:10084000FB01008111810615170559F706810A156C
:1008500041F71DC050E04F5F5F4F07E010E00E947E
:10086000F50998018B010E94D10AFD0105831683C9
:1008700005811681012B69F4FC0100810860008369
:100880008C0107DDFC0100FB008102F9008300E020
:100890003FC004810395048325813681448150E063
:1008A00007E010E00E94F509200F311F275030406B
:1008B000F90160827182FD0125813681448107E062
:1008C00010E00E94F509200F311F25503040F9013A
:1008D00080829182FD0125813681448107E010E00C
:1008E0000E94F509200F311F23503040F90140824A
:1008F0005182FD0125813681448107E010E00E948C
:10090000F509200F311F21503040F901A08201E08C
:10091000EDE00C943C0AF801408142FD02C000E089
:100920000895268B378B208122602083008101FB74
:1009300000E000F90895BA93AA93D8010C9102FF40
:1009400045C0FD010589002309F440C002811381DF
:10095000F80120A131A1232B71F00E946807002328
:1009600051F48D019EDDFD0102811381065E1F4F52
:100970000E945B072BC0FD01048515852685378500
:10098000012B022B032B69F00485158526853785FD
:100990000150104020403040048715872687378754
:1009A00015C0008511852285338504871587268724
:1009B0003787018100FF08C001810E7F018302811A
:1009C00013810E94ED0602C08D0191DCA991B991BD
:1009D00008950E94310AD801832E3A012B01FD01AE
:1009E0008281938140960C9102FF0CC005890023FF
:1009F00049F0018100FD06C005E0801629F006E0FF
:100A0000801611F000E050C001810160018305E013
:100A1000801631F4042D052919F0442455245A94E4
:100A2000028113810E946206282DFD01028113813B
:100A30000E9462069301232FFD01028113810E940F
:100A40006206262DFD01028113810E946206920139
:100A5000232FFD01028113810E946206242DFD01D6
:100A6000028113810E946206FC01668177814081C8
:100A7000518100851185400F511F41505040208108
:100A80003181048115810E946408C8019C01232FD3
:100A9000FD01028113810E946206282FFD0102815F
:100AA00013810E94620601E0E9E00C943E0AF8011D
:100AB000308132FF0EC03589332359F00CD0202FFE
:100AC000212B39F0F80121810281201710F001E07B
:100AD000089500E008950E94350AD801822F90E021
:100AE000FD0102891389208122FF03C02589222369
:100AF00019F400E010E016C0442404C098018D01F0
:100B0000D1DB4394FD012589421628F4F8012081A8
:100B10002817A1F791E0992311F0980102C020E075
:100B200030E08901E5E00C94420AF8010081077089
:100B3000073011F401E0089500E008953B2F6A2F7B
:100B40002FB7F894F801478101E010E00E94FD09F9
:100B5000A581B6811C91102B1C932FBFA62FB32FFC
:100B600008953B2F6A2F2FB7F894F801478101E0D1
:100B700010E00E94FD090095A581B6811C9110230B
:100B80001C932FBFA62FB32F0895BA93AA93D80111
:100B90000A8111962D933C93129713964D935C9373
:100BA000149715966D937C93169717960C93179739
:100BB0000C9101600C938D01B8DF00FB0C9104F9DE
:100BC0000C930C910170A991B99121960895BA9353
:100BD000AA93D8010A811B8150962D933C9351977B
:100BE00058964D935C9359975A966D937C935B9767
:100BF00092960D931C9393970C9102600C938D0128
:100C000094DF00FB0C9104F90C930C9101FB00E0C4
:100C100000F9A991B99122960895BA93AA93D8019F
:100C20000C9101FF3DC050960D911C915197549627
:100C30000D931C93559752960D931C93539758966A
:100C40004D915C91599720E030E050960D911C91A8
:100C500051970E94BD0A00E056960D930C9357974A
:100C60005A960D911C915B975E960D931C935F971E
:100C70005C960D931C935D9792964D915C91939722
:100C800020E030E05A960D911C915B970E94BD0ABE
:100C900000E090960D930C9391970C9104600C9347
:100CA00000E094960D930C9395978D013EDF00FB29
:100CB0000C9104F90C930C9102FB00E000F9A9914E
:100CC000B9910895BD01D801FD0170960C9104FF02
:100CD00026C0068117814085518504171507F8F451
:100CE000068117810F5F1F4F06831783A281B3818F
:100CF0002C93228133810081118140855185040F1D
:100D0000151F015010402017310719F4008111817F
:100D100004C0028113810F5F1F4F02831383DB0125
:100D200008950E94360AD801CD0140968C012C917D
:100D300024FF50C0F80126813781232B71F12681D1
:100D40003781215030402683378324813581F90152
:100D50004081FD0121813281F9014083F801448104
:100D600055812081318160857185260F371F215083
:100D700030404217530729F4208131812483358381
:100D800006C0048115810F5F1F4F04831583FD0189
:100D900004A115A106A317A31DC0FD0104A115A15F
:100DA000012BC1F40C910F7D0C930C9103FF06C035
:100DB00000E020A531A5F901099502C08D01D1DE21
:100DC000FD0104891589228933890217130711F05F
:100DD0008C0171D0E4E00C94430ABA93AA93D80131
:100DE0000C9104FF1DC01396ED91FC9114970081A6
:100DF00005FFF9CF0C9100620C93FD0104A115A130
:100E000006A317A30C9103FF07C001E09896ED918C
:100E1000FC919997099502C08D0190DE8D0181DFCB
:100E2000A991B99108950D012197F8017A96D801F9
:100E30002C9124FF3DC02C9125FD07C026813781D0
:100E4000408551852417350730F0F801A181B28122
:100E50000C9108832DC0268137812F5F3F4F268359
:100E6000378311962D913C91D9012C91A281B381A8
:100E70002C93428153812081318160857185260FB9
:100E8000371F215030404217530719F42081318118
:100E900004C0228133812F5F3F4F22833383F801C7
:100EA0004085518562857385448755876687778736
:100EB0002196D0010895F801208131812283338366
:100EC000228133812483358320E02683278308957C
:100ED000F801208124FF1EC04485558566857785ED
:100EE000452B462B472B61F04485558566857785D4
:100EF00041505040604070404487558766877787EF
:100F00000485158526853785012B022B032B11F0CF
:100F100001E0089500E008951B2E2A2EF8010881B3
:100F20001981022E032A19F0002E012A11F400E083
:100F30000EC0458356836783708745E041872183D0
:100F400032830383148300810160008301E0A22DBA
:100F5000B12D229608950E94360AD8010C9100FF07
:100F6000B0C0FD010185021709F4ABC021872150F3
:100F700041F12A9509F444C02A9509F460C02A95E4
:100F8000058116812781308544E009F478C00E94EC
:100F9000030A40E855E260E070E00E940B0AC801D5
:100FA0000197FD0103811481F8019083FD01058102
:100FB00016812781308544E00E94030A40E855E20B
:100FC0005CC0058116812781308544E00E94030AB8
:100FD00040E05BE460E070E00E940B0AC80101970A
:100FE000FD0103811481F8019083FD0105811681C3
:100FF0002781308544E00E94030A40E05BE43DC065
:10100000058116812781308544E00E94030A40E073
:1010100056E960E070E00E940B0AC8010197FD01EB
:1010200003811481F8019083FD01058116812781D8
:10103000308544E00E94030A40E056E91EC0058165
:1010400016812781308544E00E94030A40E051EE7A
:1010500060E070E00E940B0AC8010197FD01038166
:101060001481F8019083FD01058116812781308567
:1010700044E00E94030A40E051EE60E01AC00E9482
:10108000030A40E052EC61E070E00E940B0AC801E4
:101090000197FD0103811481F8019083FD01058111
:1010A00016812781308544E00E94030A40E052EC1B
:1010B00061E070E00E940B0A0A95FD01A181B281F6
:1010C0000C93E4E00C94430A0E94360A09011A01C9
:1010D0004FEF8FEF14C0A42FB0E0F80121918F01E2
:1010E000A227482FFD01E457FF4F24914227FD011D
:1010F000E457FE4F84912016310608F480019B01CD
:1011000061507040232B39F7142F00E0080FE4E002
:101110000C94430A8A93FA93EA933A922A921A9287
:101120000A927A936A935A934A933A932A931A9318
:101130000A938FB702E311E00E9413078FBF099152
:101140001991299139914991599169917991099010
:10115000199029903990E991F991899118958A937C
:10116000FA93EA933A922A921A920A927A936A939B
:101170005A934A933A932A931A930A938FB702E3A6
:1011800011E00E9491068FBF09911991299139911F
:1011900049915991699179910990199029903990C3
:1011A000E991F991899118950A9300E702BF01E04E
:1011B00000930E010991189508950E94360A8D9AA0
:1011C00008ED0AB907E003BF0FEF02BF01E007BF58
:1011D00005E00A9362E370E04BE250E02CE230E07D
:1011E00002E311E00E94C50500E011E01A930A93A2
:1011F0006CE572E040E051E02CE531E002E311E003
:101200000E94E70502E311E00E940D06A0E0B1E0B4
:1012100000E910E01A930A9329E230E040E050E040
:1012200061EE70E000E111E00E948C0720E000E137
:1012300011E00E94AB0700E117E220E02A932A9315
:101240001A930A9341E022E331E00AE111E00E949F
:10125000BA0240E251EA67E070E00AE111E00E9460
:101260004B03BA93AA9364E070E040E050E033E0AF
:1012700021E00AE111E00E94660308E011E01A9300
:101280000A9362E070E04AE050E033E021E00AE1D6
:1012900011E00E94F7032CED38E00AE111E00E9412
:1012A0008B04789401C0019700910E010130E1F7A1
:1012B00000E000930E010AE111E00E949B0421E08E
:1012C0000AE111E00E94570500930F01182F192B16
:1012D00051F7002349F7FD01068117810B301040BB
:1012E00018F360E070E043E050E036E021E00AE10E
:1012F00011E00E94E90484EF91E0D6CF00008895C8
:10130000FECF9A938A93A80189010E94F509C8012A
:101310000E94600A9801F801012B39F002C000E038
:1013200001938C010197012BD1F789018991999142
:1013300008950DE90DBF03E00EBFCEE9D5E00E9490
:101340004C0A002311F00E94770B0E94DD080E94D6
:101350007E090C947E090D01AEE9B5E0AD01202FA8
:10136000212B09F440C0ECE5F3E02081318104C079
:10137000DA01FA014181528142175307A0F5BA01FF
:101380006D5F7F4F0617170799F7FA010081002359
:1013900051F1418152814217530710F48A0101C073
:1013A0008F016C91662361F4F8016081662311F06E
:1013B0008A0102C001811281FD01018312830AC0EA
:1013C000D8014D91442321F40D911C910183128386
:1013D00000E00083018112810217130721F4ACE5BC
:1013E000B3E0ED93FC93D0010895149F102D059F59
:1013F000100D049F002D110D08954A951AF0000F4D
:10140000111FFBCF08954A952AF036952795179519
:101410000795F9CF0895002411241001E0E2EA9520
:1014200092F0001F111F221F331F001C111C221CD1
:10143000331C041615062606370688F3041A150A07
:10144000260A370AECCF001F111F221F331FA001ED
:10145000B10100951095209530950895BA92AA9201
:101460009A928A927A926A925A924A92BA93AA93DA
:101470009A938A930895BB84AA84998488847F80F0
:101480006E805D804C80BB81AA8199818881F0E06B
:10149000EC0FFD1FEF01089501E00895F80141816F
:1014A0005281FA01E21BF30B349748F0642FF801E4
:1014B0002183328340E0F9014083618352830895A0
:1014C0000E94360A9801ECE5F3E0A081B1810A2F71
:1014D0000B2B21F4AEE9B5E0A083B1830EE916E051
:1014E0000A1B1B0BC901039608171907A8F001E096
:1014F0000C938D01020F131F0D5F1F4FFD01018320
:1015000012830181ECE5F3E000831183319521958D
:101510003040020F131F1FC0EEE9F5E001C0F801D3
:10152000EA17FB07B0F40181128140814423B9F727
:10153000C8018E1B9F0B03978217930780F3CF017F
:10154000039601E00083280F391F8F01A7DF8C016C
:1015500002C000E010E0E4E00C94430A0D01D80161
:1015600005C0F90160816D932F5F3F4FBA01415073
:101570005040672BB1F7D0010895F80101C02193C5
:10158000BA0141505040672BD1F70895202F212BED
:1015900039F021912D9301501040202F212BC9F7B4
:1015A00008950E94340AA8018901AEE9B5E0CA0194
:1015B000242F252B19F40E94600A08C0202F232B0A
:1015C00041F48A010E94AB0900E010E0E6E00C94CF
:1015D000410AECE5F3E00080118003C0FD01A18128
:1015E000B281A015B10580F79D012D5F3F4F821795
:1015F0009307A1F72C91222339F3FD01218032803A
:101600009101241B350B02171307D0F42014310469
:1016100051F1400F511FF1010081002309F040C03A
:10162000FD0141835283042F40E0E02FF52F4083DA
:10163000F10121813281E02FF52F2183328347C0D0
:101640002017310708F043C0400F511FBA01681737
:10165000790708F4B9CF2014310479F42EE936E083
:101660002417350750F0AC01400F511F41835283BE
:10167000ECE5F3E0408351832AC0F10160816623E9
:10168000A1F4618172819B01281B390B021713079A
:1016900060F4FD0191012015310539F061837283F9
:1016A0009A018D010E944E0A12C00E94600A280110
:1016B000012B09F489CFFD0101811281081B190B4F
:1016C000FC01D20163DF8C010E94AB09C2018C01D5
:1016D0007DCF20E006D0E9F70895259102D0E9F703
:1016E00008952D9301501040202F212B08958CE850
:1016F00092E0FC0105911491FC013296A591B49100
:10170000FC01349625913491422F432B19F0F901B5
:10171000E4DF01C0DEDF069612E08239910748F36C
:0217200008952A
:0400000300000000F9
:00000001FF
